{
  "contractName": "Auth",
  "abi": [
    {
      "anonymous": false,
      "inputs": [
        {
          "indexed": false,
          "internalType": "string",
          "name": "username",
          "type": "string"
        },
        {
          "indexed": false,
          "internalType": "string",
          "name": "email",
          "type": "string"
        },
        {
          "indexed": false,
          "internalType": "string",
          "name": "password",
          "type": "string"
        }
      ],
      "name": "userCreated",
      "type": "event"
    },
    {
      "inputs": [],
      "name": "userCount",
      "outputs": [
        {
          "internalType": "uint256",
          "name": "",
          "type": "uint256"
        }
      ],
      "stateMutability": "view",
      "type": "function",
      "constant": true
    },
    {
      "inputs": [
        {
          "internalType": "string",
          "name": "",
          "type": "string"
        }
      ],
      "name": "usersList",
      "outputs": [
        {
          "internalType": "string",
          "name": "username",
          "type": "string"
        },
        {
          "internalType": "string",
          "name": "email",
          "type": "string"
        },
        {
          "internalType": "string",
          "name": "password",
          "type": "string"
        }
      ],
      "stateMutability": "view",
      "type": "function",
      "constant": true
    },
    {
      "inputs": [
        {
          "internalType": "string",
          "name": "_username",
          "type": "string"
        },
        {
          "internalType": "string",
          "name": "_email",
          "type": "string"
        },
        {
          "internalType": "string",
          "name": "_password",
          "type": "string"
        }
      ],
      "name": "createUser",
      "outputs": [],
      "stateMutability": "nonpayable",
      "type": "function"
    }
  ],
  "bytecode": "0x60806040526000805534801561001457600080fd5b50610877806100246000396000f3fe608060405234801561001057600080fd5b50600436106100415760003560e01c806307973ccf146100465780634cbce6ac1461006457806359ae069b14610096575b600080fd5b61004e6100b2565b60405161005b9190610639565b60405180910390f35b61007e60048036038101906100799190610485565b6100b8565b60405161008d939291906105ed565b60405180910390f35b6100b060048036038101906100ab91906104c6565b610290565b005b60005481565b6001818051602081018201805184825260208301602085012081835280955050505050506000915090508060000180546100f190610728565b80601f016020809104026020016040519081016040528092919081815260200182805461011d90610728565b801561016a5780601f1061013f5761010080835404028352916020019161016a565b820191906000526020600020905b81548152906001019060200180831161014d57829003601f168201915b50505050509080600101805461017f90610728565b80601f01602080910402602001604051908101604052809291908181526020018280546101ab90610728565b80156101f85780601f106101cd576101008083540402835291602001916101f8565b820191906000526020600020905b8154815290600101906020018083116101db57829003601f168201915b50505050509080600201805461020d90610728565b80601f016020809104026020016040519081016040528092919081815260200182805461023990610728565b80156102865780601f1061025b57610100808354040283529160200191610286565b820191906000526020600020905b81548152906001019060200180831161026957829003601f168201915b5050505050905083565b6000808154809291906102a29061075a565b91905055506040518060600160405280848152602001838152602001828152506001836040516102d291906105d6565b908152602001604051809103902060008201518160000190805190602001906102fc92919061037a565b50602082015181600101908051906020019061031992919061037a565b50604082015181600201908051906020019061033692919061037a565b509050507fc50aadd178489c438b87db1b844b2d3380597c1c38fbcb15977a662c4404672e83838360405161036d939291906105ed565b60405180910390a1505050565b82805461038690610728565b90600052602060002090601f0160209004810192826103a857600085556103ef565b82601f106103c157805160ff19168380011785556103ef565b828001600101855582156103ef579182015b828111156103ee5782518255916020019190600101906103d3565b5b5090506103fc9190610400565b5090565b5b80821115610419576000816000905550600101610401565b5090565b600061043061042b84610685565b610654565b90508281526020810184848401111561044857600080fd5b6104538482856106e6565b509392505050565b600082601f83011261046c57600080fd5b813561047c84826020860161041d565b91505092915050565b60006020828403121561049757600080fd5b600082013567ffffffffffffffff8111156104b157600080fd5b6104bd8482850161045b565b91505092915050565b6000806000606084860312156104db57600080fd5b600084013567ffffffffffffffff8111156104f557600080fd5b6105018682870161045b565b935050602084013567ffffffffffffffff81111561051e57600080fd5b61052a8682870161045b565b925050604084013567ffffffffffffffff81111561054757600080fd5b6105538682870161045b565b9150509250925092565b6000610568826106b5565b61057281856106c0565b93506105828185602086016106f5565b61058b81610830565b840191505092915050565b60006105a1826106b5565b6105ab81856106d1565b93506105bb8185602086016106f5565b80840191505092915050565b6105d0816106dc565b82525050565b60006105e28284610596565b915081905092915050565b60006060820190508181036000830152610607818661055d565b9050818103602083015261061b818561055d565b9050818103604083015261062f818461055d565b9050949350505050565b600060208201905061064e60008301846105c7565b92915050565b6000604051905081810181811067ffffffffffffffff8211171561067b5761067a610801565b5b8060405250919050565b600067ffffffffffffffff8211156106a05761069f610801565b5b601f19601f8301169050602081019050919050565b600081519050919050565b600082825260208201905092915050565b600081905092915050565b6000819050919050565b82818337600083830152505050565b60005b838110156107135780820151818401526020810190506106f8565b83811115610722576000848401525b50505050565b6000600282049050600182168061074057607f821691505b60208210811415610754576107536107d2565b5b50919050565b6000610765826106dc565b91507fffffffffffffffffffffffffffffffffffffffffffffffffffffffffffffffff821415610798576107976107a3565b5b600182019050919050565b7f4e487b7100000000000000000000000000000000000000000000000000000000600052601160045260246000fd5b7f4e487b7100000000000000000000000000000000000000000000000000000000600052602260045260246000fd5b7f4e487b7100000000000000000000000000000000000000000000000000000000600052604160045260246000fd5b6000601f19601f830116905091905056fea2646970667358221220c7c5ba99e9c2b2a2c37d7253702e6ee5de9578ecbbf50d544bf2737a9ad33c6564736f6c63430008000033",
  "immutableReferences": {},
  "source": "// SPDX-License-Identifier: MIT\npragma solidity >=0.4.22 <0.9.0;\n\ncontract Auth {\n    uint public userCount = 0;\n\n    mapping(string => user) public usersList;\n\n    struct user {\n        string username;\n        string email;\n        string password;\n    }\n\n    // events\n\n    event userCreated(string username, string email, string password);\n\n    function createUser(\n        string memory _username,\n        string memory _email,\n        string memory _password\n    ) public {\n        userCount++;\n        usersList[_email] = user(_username, _email, _password);\n        emit userCreated(_username, _email, _password);\n    }\n}\n",
  "sourcePath": "/Users/mahaanbhat/Desktop/auth-app/src/contracts/Auth.sol",
  "compiler": {
    "name": "solc",
    "version": "0.8.0+commit.c7dfd78e.Emscripten.clang"
  },
  "schemaVersion": "3.4.16",
  "updatedAt": "2024-06-06T18:54:43.196Z",
  "networkType": "ethereum",
  "devdoc": {
    "kind": "dev",
    "methods": {},
    "version": 1
  },
  "userdoc": {
    "kind": "user",
    "methods": {},
    "version": 1
  }
}